{
  "_format": "hh-sol-artifact-1",
  "contractName": "CertificateRegistry",
  "sourceName": "contracts/CertificateRegistry.sol",
  "abi": [
    {
      "anonymous": false,
      "inputs": [
        {
          "indexed": false,
          "internalType": "string",
          "name": "certificateID",
          "type": "string"
        },
        {
          "indexed": false,
          "internalType": "bytes32",
          "name": "hash",
          "type": "bytes32"
        },
        {
          "indexed": false,
          "internalType": "uint256",
          "name": "time",
          "type": "uint256"
        },
        {
          "indexed": false,
          "internalType": "string",
          "name": "issuer",
          "type": "string"
        }
      ],
      "name": "CertificateStored",
      "type": "event"
    },
    {
      "inputs": [
        {
          "internalType": "string",
          "name": "",
          "type": "string"
        }
      ],
      "name": "certificates",
      "outputs": [
        {
          "internalType": "bytes32",
          "name": "hash",
          "type": "bytes32"
        },
        {
          "internalType": "uint256",
          "name": "timestamp",
          "type": "uint256"
        },
        {
          "internalType": "string",
          "name": "issuer",
          "type": "string"
        }
      ],
      "stateMutability": "view",
      "type": "function"
    },
    {
      "inputs": [
        {
          "internalType": "string",
          "name": "certificateID",
          "type": "string"
        }
      ],
      "name": "getCertificate",
      "outputs": [
        {
          "internalType": "bytes32",
          "name": "",
          "type": "bytes32"
        },
        {
          "internalType": "uint256",
          "name": "",
          "type": "uint256"
        },
        {
          "internalType": "string",
          "name": "",
          "type": "string"
        }
      ],
      "stateMutability": "view",
      "type": "function"
    },
    {
      "inputs": [
        {
          "internalType": "string",
          "name": "certificateID",
          "type": "string"
        },
        {
          "internalType": "bytes32",
          "name": "hash",
          "type": "bytes32"
        },
        {
          "internalType": "string",
          "name": "issuer",
          "type": "string"
        }
      ],
      "name": "storeCertificate",
      "outputs": [],
      "stateMutability": "nonpayable",
      "type": "function"
    }
  ],
  "bytecode": "0x608060405234801561001057600080fd5b50610afc806100206000396000f3fe608060405234801561001057600080fd5b50600436106100415760003560e01c80638f2b91ea146100465780639c9de12a14610078578063ed0f2e7514610094575b600080fd5b610060600480360381019061005b91906104e7565b6100c6565b60405161006f939291906105e1565b60405180910390f35b610092600480360381019061008d919061064b565b61018e565b005b6100ae60048036038101906100a991906104e7565b610299565b6040516100bd939291906105e1565b60405180910390f35b60008180516020810182018051848252602083016020850120818352809550505050505060009150905080600001549080600101549080600201805461010b90610705565b80601f016020809104026020016040519081016040528092919081815260200182805461013790610705565b80156101845780601f1061015957610100808354040283529160200191610184565b820191906000526020600020905b81548152906001019060200180831161016757829003601f168201915b5050505050905083565b6000808460405161019f9190610772565b908152602001604051809103902060010154146101f1576040517f08c379a00000000000000000000000000000000000000000000000000000000081526004016101e8906107d5565b60405180910390fd5b60405180606001604052808381526020014281526020018281525060008460405161021c9190610772565b90815260200160405180910390206000820151816000015560208201518160010155604082015181600201908161025391906109a1565b509050507f78747bc60aa3ff05922bc175ddb43ecaa4afc0f4eaaca8c0910c7dd80b71ed4e8383428460405161028c9493929190610a73565b60405180910390a1505050565b6000806060600080856040516102af9190610772565b908152602001604051809103902060405180606001604052908160008201548152602001600182015481526020016002820180546102ec90610705565b80601f016020809104026020016040519081016040528092919081815260200182805461031890610705565b80156103655780601f1061033a57610100808354040283529160200191610365565b820191906000526020600020905b81548152906001019060200180831161034857829003601f168201915b5050505050815250509050806000015181602001518260400151935093509350509193909250565b6000604051905090565b600080fd5b600080fd5b600080fd5b600080fd5b6000601f19601f8301169050919050565b7f4e487b7100000000000000000000000000000000000000000000000000000000600052604160045260246000fd5b6103f4826103ab565b810181811067ffffffffffffffff82111715610413576104126103bc565b5b80604052505050565b600061042661038d565b905061043282826103eb565b919050565b600067ffffffffffffffff821115610452576104516103bc565b5b61045b826103ab565b9050602081019050919050565b82818337600083830152505050565b600061048a61048584610437565b61041c565b9050828152602081018484840111156104a6576104a56103a6565b5b6104b1848285610468565b509392505050565b600082601f8301126104ce576104cd6103a1565b5b81356104de848260208601610477565b91505092915050565b6000602082840312156104fd576104fc610397565b5b600082013567ffffffffffffffff81111561051b5761051a61039c565b5b610527848285016104b9565b91505092915050565b6000819050919050565b61054381610530565b82525050565b6000819050919050565b61055c81610549565b82525050565b600081519050919050565b600082825260208201905092915050565b60005b8381101561059c578082015181840152602081019050610581565b60008484015250505050565b60006105b382610562565b6105bd818561056d565b93506105cd81856020860161057e565b6105d6816103ab565b840191505092915050565b60006060820190506105f6600083018661053a565b6106036020830185610553565b818103604083015261061581846105a8565b9050949350505050565b61062881610530565b811461063357600080fd5b50565b6000813590506106458161061f565b92915050565b60008060006060848603121561066457610663610397565b5b600084013567ffffffffffffffff8111156106825761068161039c565b5b61068e868287016104b9565b935050602061069f86828701610636565b925050604084013567ffffffffffffffff8111156106c0576106bf61039c565b5b6106cc868287016104b9565b9150509250925092565b7f4e487b7100000000000000000000000000000000000000000000000000000000600052602260045260246000fd5b6000600282049050600182168061071d57607f821691505b6020821081036107305761072f6106d6565b5b50919050565b600081905092915050565b600061074c82610562565b6107568185610736565b935061076681856020860161057e565b80840191505092915050565b600061077e8284610741565b915081905092915050565b7f436572746966696361746520616c726561647920657869737473000000000000600082015250565b60006107bf601a8361056d565b91506107ca82610789565b602082019050919050565b600060208201905081810360008301526107ee816107b2565b9050919050565b60008190508160005260206000209050919050565b60006020601f8301049050919050565b600082821b905092915050565b6000600883026108577fffffffffffffffffffffffffffffffffffffffffffffffffffffffffffffffff8261081a565b610861868361081a565b95508019841693508086168417925050509392505050565b6000819050919050565b600061089e61089961089484610549565b610879565b610549565b9050919050565b6000819050919050565b6108b883610883565b6108cc6108c4826108a5565b848454610827565b825550505050565b600090565b6108e16108d4565b6108ec8184846108af565b505050565b5b81811015610910576109056000826108d9565b6001810190506108f2565b5050565b601f82111561095557610926816107f5565b61092f8461080a565b8101602085101561093e578190505b61095261094a8561080a565b8301826108f1565b50505b505050565b600082821c905092915050565b60006109786000198460080261095a565b1980831691505092915050565b60006109918383610967565b9150826002028217905092915050565b6109aa82610562565b67ffffffffffffffff8111156109c3576109c26103bc565b5b6109cd8254610705565b6109d8828285610914565b600060209050601f831160018114610a0b57600084156109f9578287015190505b610a038582610985565b865550610a6b565b601f198416610a19866107f5565b60005b82811015610a4157848901518255600182019150602085019450602081019050610a1c565b86831015610a5e5784890151610a5a601f891682610967565b8355505b6001600288020188555050505b505050505050565b60006080820190508181036000830152610a8d81876105a8565b9050610a9c602083018661053a565b610aa96040830185610553565b8181036060830152610abb81846105a8565b90509594505050505056fea26469706673582212202015521f24baaa218bc4ecd52e99dca0086d7b86d66f0519a0f01ed71947a7c864736f6c63430008140033",
  "linkReferences": {},
  "deployedLinkReferences": {}
}